{"abi":[{"type":"constructor","inputs":[{"name":"chief_","type":"address","internalType":"address"}],"stateMutability":"nonpayable"},{"type":"function","name":"allowance","inputs":[{"name":"","type":"address","internalType":"address"},{"name":"","type":"address","internalType":"address"}],"outputs":[{"name":"","type":"uint256","internalType":"uint256"}],"stateMutability":"view"},{"type":"function","name":"approve","inputs":[{"name":"spender","type":"address","internalType":"address"},{"name":"amount","type":"uint256","internalType":"uint256"}],"outputs":[{"name":"","type":"bool","internalType":"bool"}],"stateMutability":"nonpayable"},{"type":"function","name":"balanceOf","inputs":[{"name":"","type":"address","internalType":"address"}],"outputs":[{"name":"","type":"uint256","internalType":"uint256"}],"stateMutability":"view"},{"type":"function","name":"chief","inputs":[],"outputs":[{"name":"","type":"address","internalType":"address"}],"stateMutability":"view"},{"type":"function","name":"decimals","inputs":[],"outputs":[{"name":"","type":"uint8","internalType":"uint8"}],"stateMutability":"view"},{"type":"function","name":"mint","inputs":[{"name":"to","type":"address","internalType":"address"},{"name":"amount","type":"uint256","internalType":"uint256"}],"outputs":[],"stateMutability":"nonpayable"},{"type":"function","name":"name","inputs":[],"outputs":[{"name":"","type":"string","internalType":"string"}],"stateMutability":"view"},{"type":"function","name":"symbol","inputs":[],"outputs":[{"name":"","type":"string","internalType":"string"}],"stateMutability":"view"},{"type":"function","name":"totalSupply","inputs":[],"outputs":[{"name":"","type":"uint256","internalType":"uint256"}],"stateMutability":"view"},{"type":"function","name":"transfer","inputs":[{"name":"to","type":"address","internalType":"address"},{"name":"amount","type":"uint256","internalType":"uint256"}],"outputs":[{"name":"","type":"bool","internalType":"bool"}],"stateMutability":"nonpayable"},{"type":"function","name":"transferFrom","inputs":[{"name":"from","type":"address","internalType":"address"},{"name":"to","type":"address","internalType":"address"},{"name":"amount","type":"uint256","internalType":"uint256"}],"outputs":[{"name":"","type":"bool","internalType":"bool"}],"stateMutability":"nonpayable"},{"type":"event","name":"Approval","inputs":[{"name":"owner","type":"address","indexed":true,"internalType":"address"},{"name":"spender","type":"address","indexed":true,"internalType":"address"},{"name":"value","type":"uint256","indexed":false,"internalType":"uint256"}],"anonymous":false},{"type":"event","name":"ReentrantCallback","inputs":[{"name":"who","type":"address","indexed":false,"internalType":"address"},{"name":"wad","type":"uint256","indexed":false,"internalType":"uint256"},{"name":"depositsBefore","type":"uint256","indexed":false,"internalType":"uint256"}],"anonymous":false},{"type":"event","name":"Transfer","inputs":[{"name":"from","type":"address","indexed":true,"internalType":"address"},{"name":"to","type":"address","indexed":true,"internalType":"address"},{"name":"value","type":"uint256","indexed":false,"internalType":"uint256"}],"anonymous":false}],"bytecode":{"object":"0x60806040526040518060400160405280601581526020017f4d6f636b546f6b656e5769746843616c6c6261636b00000000000000000000008152505f90816100479190610445565b506040518060400160405280600481526020017f4d545743000000000000000000000000000000000000000000000000000000008152506001908161008c9190610445565b50601260025f6101000a81548160ff021916908360ff1602179055503480156100b3575f5ffd5b506040516118a83803806118a883398181016040528101906100d59190610572565b8060065f6101000a81548173ffffffffffffffffffffffffffffffffffffffff021916908373ffffffffffffffffffffffffffffffffffffffff16021790555061012e3368056bc75e2d6310000061013460201b60201c565b50610625565b8060035f82825461014591906105ca565b925050819055508060045f8473ffffffffffffffffffffffffffffffffffffffff1673ffffffffffffffffffffffffffffffffffffffff1681526020019081526020015f205f82825461019891906105ca565b925050819055508173ffffffffffffffffffffffffffffffffffffffff165f73ffffffffffffffffffffffffffffffffffffffff167fddf252ad1be2c89b69c2b068fc378daa952ba7f163c4a11628f55a4df523b3ef836040516101fc919061060c565b60405180910390a35050565b5f81519050919050565b7f4e487b71000000000000000000000000000000000000000000000000000000005f52604160045260245ffd5b7f4e487b71000000000000000000000000000000000000000000000000000000005f52602260045260245ffd5b5f600282049050600182168061028357607f821691505b6020821081036102965761029561023f565b5b50919050565b5f819050815f5260205f209050919050565b5f6020601f8301049050919050565b5f82821b905092915050565b5f600883026102f87fffffffffffffffffffffffffffffffffffffffffffffffffffffffffffffffff826102bd565b61030286836102bd565b95508019841693508086168417925050509392505050565b5f819050919050565b5f819050919050565b5f61034661034161033c8461031a565b610323565b61031a565b9050919050565b5f819050919050565b61035f8361032c565b61037361036b8261034d565b8484546102c9565b825550505050565b5f5f905090565b61038a61037b565b610395818484610356565b505050565b5b818110156103b8576103ad5f82610382565b60018101905061039b565b5050565b601f8211156103fd576103ce8161029c565b6103d7846102ae565b810160208510156103e6578190505b6103fa6103f2856102ae565b83018261039a565b50505b505050565b5f82821c905092915050565b5f61041d5f1984600802610402565b1980831691505092915050565b5f610435838361040e565b9150826002028217905092915050565b61044e82610208565b67ffffffffffffffff81111561046757610466610212565b5b610471825461026c565b61047c8282856103bc565b5f60209050601f8311600181146104ad575f841561049b578287015190505b6104a5858261042a565b86555061050c565b601f1984166104bb8661029c565b5f5b828110156104e2578489015182556001820191506020850194506020810190506104bd565b868310156104ff57848901516104fb601f89168261040e565b8355505b6001600288020188555050505b505050505050565b5f5ffd5b5f73ffffffffffffffffffffffffffffffffffffffff82169050919050565b5f61054182610518565b9050919050565b61055181610537565b811461055b575f5ffd5b50565b5f8151905061056c81610548565b92915050565b5f6020828403121561058757610586610514565b5b5f6105948482850161055e565b91505092915050565b7f4e487b71000000000000000000000000000000000000000000000000000000005f52601160045260245ffd5b5f6105d48261031a565b91506105df8361031a565b92508282019050808211156105f7576105f661059d565b5b92915050565b6106068161031a565b82525050565b5f60208201905061061f5f8301846105fd565b92915050565b611276806106325f395ff3fe608060405234801561000f575f5ffd5b50600436106100a7575f3560e01c806340c10f191161006f57806340c10f191461016557806370a082311461018157806395d89b41146101b1578063a9059cbb146101cf578063dd62ed3e146101ff578063ffd864d31461022f576100a7565b806306fdde03146100ab578063095ea7b3146100c957806318160ddd146100f957806323b872dd14610117578063313ce56714610147575b5f5ffd5b6100b361024d565b6040516100c09190610c4b565b60405180910390f35b6100e360048036038101906100de9190610cfc565b6102d8565b6040516100f09190610d54565b60405180910390f35b6101016103c5565b60405161010e9190610d7c565b60405180910390f35b610131600480360381019061012c9190610d95565b6103cb565b60405161013e9190610d54565b60405180910390f35b61014f61086b565b60405161015c9190610e00565b60405180910390f35b61017f600480360381019061017a9190610cfc565b61087d565b005b61019b60048036038101906101969190610e19565b61088b565b6040516101a89190610d7c565b60405180910390f35b6101b96108a0565b6040516101c69190610c4b565b60405180910390f35b6101e960048036038101906101e49190610cfc565b61092c565b6040516101f69190610d54565b60405180910390f35b61021960048036038101906102149190610e44565b610ac2565b6040516102269190610d7c565b60405180910390f35b610237610ae2565b6040516102449190610e91565b60405180910390f35b5f805461025990610ed7565b80601f016020809104026020016040519081016040528092919081815260200182805461028590610ed7565b80156102d05780601f106102a7576101008083540402835291602001916102d0565b820191905f5260205f20905b8154815290600101906020018083116102b357829003601f168201915b505050505081565b5f8160055f3373ffffffffffffffffffffffffffffffffffffffff1673ffffffffffffffffffffffffffffffffffffffff1681526020019081526020015f205f8573ffffffffffffffffffffffffffffffffffffffff1673ffffffffffffffffffffffffffffffffffffffff1681526020019081526020015f20819055508273ffffffffffffffffffffffffffffffffffffffff163373ffffffffffffffffffffffffffffffffffffffff167f8c5be1e5ebec7d5bd14f71427d1e84f3dd0314c0f7b2291e5b200ac8c7c3b925846040516103b39190610d7c565b60405180910390a36001905092915050565b60035481565b5f8160045f8673ffffffffffffffffffffffffffffffffffffffff1673ffffffffffffffffffffffffffffffffffffffff1681526020019081526020015f2054101561044c576040517f08c379a000000000000000000000000000000000000000000000000000000000815260040161044390610f51565b60405180910390fd5b8160055f8673ffffffffffffffffffffffffffffffffffffffff1673ffffffffffffffffffffffffffffffffffffffff1681526020019081526020015f205f3373ffffffffffffffffffffffffffffffffffffffff1673ffffffffffffffffffffffffffffffffffffffff1681526020019081526020015f20541015610507576040517f08c379a00000000000000000000000000000000000000000000000000000000081526004016104fe90610fb9565b60405180910390fd5b8160045f8673ffffffffffffffffffffffffffffffffffffffff1673ffffffffffffffffffffffffffffffffffffffff1681526020019081526020015f205f8282546105539190611004565b925050819055508160045f8573ffffffffffffffffffffffffffffffffffffffff1673ffffffffffffffffffffffffffffffffffffffff1681526020019081526020015f205f8282546105a69190611037565b925050819055508160055f8673ffffffffffffffffffffffffffffffffffffffff1673ffffffffffffffffffffffffffffffffffffffff1681526020019081526020015f205f3373ffffffffffffffffffffffffffffffffffffffff1673ffffffffffffffffffffffffffffffffffffffff1681526020019081526020015f205f8282546106349190611004565b925050819055508273ffffffffffffffffffffffffffffffffffffffff168473ffffffffffffffffffffffffffffffffffffffff167fddf252ad1be2c89b69c2b068fc378daa952ba7f163c4a11628f55a4df523b3ef846040516106989190610d7c565b60405180910390a35f60065f9054906101000a900473ffffffffffffffffffffffffffffffffffffffff1673ffffffffffffffffffffffffffffffffffffffff1663fc7e286d866040518263ffffffff1660e01b81526004016106fb9190610e91565b602060405180830381865afa158015610716573d5f5f3e3d5ffd5b505050506040513d601f19601f8201168201806040525081019061073a919061107e565b90507fce50e80f0bd7e1458ff3a6f3d4dfe44589832a5e938f412ad3ba58bf890ee2bd85848360405161076f939291906110a9565b60405180910390a15f5f67ffffffffffffffff811115610792576107916110de565b5b6040519080825280602002602001820160405280156107c05781602001602082028036833780820191505090505b50905060065f9054906101000a900473ffffffffffffffffffffffffffffffffffffffff1673ffffffffffffffffffffffffffffffffffffffff16635123e1fa826040518263ffffffff1660e01b815260040161081d91906111c2565b6020604051808303815f875af1158015610839573d5f5f3e3d5ffd5b505050506040513d601f19601f8201168201806040525081019061085d9190611215565b506001925050509392505050565b60025f9054906101000a900460ff1681565b6108878282610b07565b5050565b6004602052805f5260405f205f915090505481565b600180546108ad90610ed7565b80601f01602080910402602001604051908101604052809291908181526020018280546108d990610ed7565b80156109245780601f106108fb57610100808354040283529160200191610924565b820191905f5260205f20905b81548152906001019060200180831161090757829003601f168201915b505050505081565b5f8160045f3373ffffffffffffffffffffffffffffffffffffffff1673ffffffffffffffffffffffffffffffffffffffff1681526020019081526020015f205410156109ad576040517f08c379a00000000000000000000000000000000000000000000000000000000081526004016109a490610f51565b60405180910390fd5b8160045f3373ffffffffffffffffffffffffffffffffffffffff1673ffffffffffffffffffffffffffffffffffffffff1681526020019081526020015f205f8282546109f99190611004565b925050819055508160045f8573ffffffffffffffffffffffffffffffffffffffff1673ffffffffffffffffffffffffffffffffffffffff1681526020019081526020015f205f828254610a4c9190611037565b925050819055508273ffffffffffffffffffffffffffffffffffffffff163373ffffffffffffffffffffffffffffffffffffffff167fddf252ad1be2c89b69c2b068fc378daa952ba7f163c4a11628f55a4df523b3ef84604051610ab09190610d7c565b60405180910390a36001905092915050565b6005602052815f5260405f20602052805f5260405f205f91509150505481565b60065f9054906101000a900473ffffffffffffffffffffffffffffffffffffffff1681565b8060035f828254610b189190611037565b925050819055508060045f8473ffffffffffffffffffffffffffffffffffffffff1673ffffffffffffffffffffffffffffffffffffffff1681526020019081526020015f205f828254610b6b9190611037565b925050819055508173ffffffffffffffffffffffffffffffffffffffff165f73ffffffffffffffffffffffffffffffffffffffff167fddf252ad1be2c89b69c2b068fc378daa952ba7f163c4a11628f55a4df523b3ef83604051610bcf9190610d7c565b60405180910390a35050565b5f81519050919050565b5f82825260208201905092915050565b8281835e5f83830152505050565b5f601f19601f8301169050919050565b5f610c1d82610bdb565b610c278185610be5565b9350610c37818560208601610bf5565b610c4081610c03565b840191505092915050565b5f6020820190508181035f830152610c638184610c13565b905092915050565b5f5ffd5b5f73ffffffffffffffffffffffffffffffffffffffff82169050919050565b5f610c9882610c6f565b9050919050565b610ca881610c8e565b8114610cb2575f5ffd5b50565b5f81359050610cc381610c9f565b92915050565b5f819050919050565b610cdb81610cc9565b8114610ce5575f5ffd5b50565b5f81359050610cf681610cd2565b92915050565b5f5f60408385031215610d1257610d11610c6b565b5b5f610d1f85828601610cb5565b9250506020610d3085828601610ce8565b9150509250929050565b5f8115159050919050565b610d4e81610d3a565b82525050565b5f602082019050610d675f830184610d45565b92915050565b610d7681610cc9565b82525050565b5f602082019050610d8f5f830184610d6d565b92915050565b5f5f5f60608486031215610dac57610dab610c6b565b5b5f610db986828701610cb5565b9350506020610dca86828701610cb5565b9250506040610ddb86828701610ce8565b9150509250925092565b5f60ff82169050919050565b610dfa81610de5565b82525050565b5f602082019050610e135f830184610df1565b92915050565b5f60208284031215610e2e57610e2d610c6b565b5b5f610e3b84828501610cb5565b91505092915050565b5f5f60408385031215610e5a57610e59610c6b565b5b5f610e6785828601610cb5565b9250506020610e7885828601610cb5565b9150509250929050565b610e8b81610c8e565b82525050565b5f602082019050610ea45f830184610e82565b92915050565b7f4e487b71000000000000000000000000000000000000000000000000000000005f52602260045260245ffd5b5f6002820490506001821680610eee57607f821691505b602082108103610f0157610f00610eaa565b5b50919050565b7f4d5457432f696e73756666696369656e742d62616c616e6365000000000000005f82015250565b5f610f3b601983610be5565b9150610f4682610f07565b602082019050919050565b5f6020820190508181035f830152610f6881610f2f565b9050919050565b7f4d5457432f696e73756666696369656e742d616c6c6f77616e636500000000005f82015250565b5f610fa3601b83610be5565b9150610fae82610f6f565b602082019050919050565b5f6020820190508181035f830152610fd081610f97565b9050919050565b7f4e487b71000000000000000000000000000000000000000000000000000000005f52601160045260245ffd5b5f61100e82610cc9565b915061101983610cc9565b925082820390508181111561103157611030610fd7565b5b92915050565b5f61104182610cc9565b915061104c83610cc9565b925082820190508082111561106457611063610fd7565b5b92915050565b5f8151905061107881610cd2565b92915050565b5f6020828403121561109357611092610c6b565b5b5f6110a08482850161106a565b91505092915050565b5f6060820190506110bc5f830186610e82565b6110c96020830185610d6d565b6110d66040830184610d6d565b949350505050565b7f4e487b71000000000000000000000000000000000000000000000000000000005f52604160045260245ffd5b5f81519050919050565b5f82825260208201905092915050565b5f819050602082019050919050565b61113d81610c8e565b82525050565b5f61114e8383611134565b60208301905092915050565b5f602082019050919050565b5f6111708261110b565b61117a8185611115565b935061118583611125565b805f5b838110156111b557815161119c8882611143565b97506111a78361115a565b925050600181019050611188565b5085935050505092915050565b5f6020820190508181035f8301526111da8184611166565b905092915050565b5f819050919050565b6111f4816111e2565b81146111fe575f5ffd5b50565b5f8151905061120f816111eb565b92915050565b5f6020828403121561122a57611229610c6b565b5b5f61123784828501611201565b9150509291505056fea26469706673582212206a6e9c7035ce01c84e8d9737ea678cb1a4ba3e3ece8eec6b361afadf21177bce64736f6c634300081e0033","linkReferences":{}},"methodIdentifiers":{"allowance(address,address)":"dd62ed3e","approve(address,uint256)":"095ea7b3","balanceOf(address)":"70a08231","chief()":"ffd864d3","decimals()":"313ce567","mint(address,uint256)":"40c10f19","name()":"06fdde03","symbol()":"95d89b41","totalSupply()":"18160ddd","transfer(address,uint256)":"a9059cbb","transferFrom(address,address,uint256)":"23b872dd"},"id":20}