{"abi":[{"type":"constructor","inputs":[{"name":"gov_","type":"address","internalType":"address"},{"name":"maxYays_","type":"uint256","internalType":"uint256"},{"name":"launchThreshold_","type":"uint256","internalType":"uint256"},{"name":"liftCooldown_","type":"uint256","internalType":"uint256"}],"stateMutability":"nonpayable"},{"type":"function","name":"EMPTY_SLATE","inputs":[],"outputs":[{"name":"","type":"bytes32","internalType":"bytes32"}],"stateMutability":"view"},{"type":"function","name":"GOV","inputs":[],"outputs":[{"name":"","type":"address","internalType":"address"}],"stateMutability":"view"},{"type":"function","name":"MAX_YAYS","inputs":[],"outputs":[{"name":"","type":"uint256","internalType":"uint256"}],"stateMutability":"view"},{"type":"function","name":"approvals","inputs":[{"name":"yay","type":"address","internalType":"address"}],"outputs":[{"name":"amt","type":"uint256","internalType":"uint256"}],"stateMutability":"view"},{"type":"function","name":"canCall","inputs":[{"name":"caller","type":"address","internalType":"address"},{"name":"","type":"address","internalType":"address"},{"name":"","type":"bytes4","internalType":"bytes4"}],"outputs":[{"name":"ok","type":"bool","internalType":"bool"}],"stateMutability":"view"},{"type":"function","name":"deposits","inputs":[{"name":"usr","type":"address","internalType":"address"}],"outputs":[{"name":"amt","type":"uint256","internalType":"uint256"}],"stateMutability":"view"},{"type":"function","name":"etch","inputs":[{"name":"yays","type":"address[]","internalType":"address[]"}],"outputs":[{"name":"slate","type":"bytes32","internalType":"bytes32"}],"stateMutability":"nonpayable"},{"type":"function","name":"free","inputs":[{"name":"wad","type":"uint256","internalType":"uint256"}],"outputs":[],"stateMutability":"nonpayable"},{"type":"function","name":"gov","inputs":[],"outputs":[{"name":"","type":"address","internalType":"contract GemLike"}],"stateMutability":"view"},{"type":"function","name":"hat","inputs":[],"outputs":[{"name":"","type":"address","internalType":"address"}],"stateMutability":"view"},{"type":"function","name":"last","inputs":[],"outputs":[{"name":"","type":"uint256","internalType":"uint256"}],"stateMutability":"view"},{"type":"function","name":"launch","inputs":[],"outputs":[],"stateMutability":"nonpayable"},{"type":"function","name":"launchThreshold","inputs":[],"outputs":[{"name":"","type":"uint256","internalType":"uint256"}],"stateMutability":"view"},{"type":"function","name":"length","inputs":[{"name":"slate","type":"bytes32","internalType":"bytes32"}],"outputs":[{"name":"","type":"uint256","internalType":"uint256"}],"stateMutability":"view"},{"type":"function","name":"lift","inputs":[{"name":"whom","type":"address","internalType":"address"}],"outputs":[],"stateMutability":"nonpayable"},{"type":"function","name":"liftCooldown","inputs":[],"outputs":[{"name":"","type":"uint256","internalType":"uint256"}],"stateMutability":"view"},{"type":"function","name":"live","inputs":[],"outputs":[{"name":"","type":"uint256","internalType":"uint256"}],"stateMutability":"view"},{"type":"function","name":"lock","inputs":[{"name":"wad","type":"uint256","internalType":"uint256"}],"outputs":[],"stateMutability":"nonpayable"},{"type":"function","name":"maxYays","inputs":[],"outputs":[{"name":"","type":"uint256","internalType":"uint256"}],"stateMutability":"view"},{"type":"function","name":"slates","inputs":[{"name":"slate","type":"bytes32","internalType":"bytes32"},{"name":"","type":"uint256","internalType":"uint256"}],"outputs":[{"name":"yays","type":"address","internalType":"address"}],"stateMutability":"view"},{"type":"function","name":"vote","inputs":[{"name":"slate","type":"bytes32","internalType":"bytes32"}],"outputs":[],"stateMutability":"nonpayable"},{"type":"function","name":"vote","inputs":[{"name":"yays","type":"address[]","internalType":"address[]"}],"outputs":[{"name":"slate","type":"bytes32","internalType":"bytes32"}],"stateMutability":"nonpayable"},{"type":"function","name":"votes","inputs":[{"name":"usr","type":"address","internalType":"address"}],"outputs":[{"name":"slate","type":"bytes32","internalType":"bytes32"}],"stateMutability":"view"},{"type":"event","name":"Etch","inputs":[{"name":"slate","type":"bytes32","indexed":true,"internalType":"bytes32"},{"name":"yays","type":"address[]","indexed":false,"internalType":"address[]"}],"anonymous":false},{"type":"event","name":"Free","inputs":[{"name":"usr","type":"address","indexed":true,"internalType":"address"},{"name":"wad","type":"uint256","indexed":false,"internalType":"uint256"}],"anonymous":false},{"type":"event","name":"Launch","inputs":[],"anonymous":false},{"type":"event","name":"Lift","inputs":[{"name":"whom","type":"address","indexed":true,"internalType":"address"}],"anonymous":false},{"type":"event","name":"Lock","inputs":[{"name":"usr","type":"address","indexed":true,"internalType":"address"},{"name":"wad","type":"uint256","indexed":false,"internalType":"uint256"}],"anonymous":false},{"type":"event","name":"Vote","inputs":[{"name":"usr","type":"address","indexed":true,"internalType":"address"},{"name":"slate","type":"bytes32","indexed":true,"internalType":"bytes32"}],"anonymous":false}],"bytecode":{"object":"0x610100604052348015610010575f5ffd5b506040516121c53803806121c583398181016040528101906100329190610118565b8373ffffffffffffffffffffffffffffffffffffffff1660808173ffffffffffffffffffffffffffffffffffffffff16815250508260a081815250508160c081815250508060e081815250505050505061017c565b5f5ffd5b5f73ffffffffffffffffffffffffffffffffffffffff82169050919050565b5f6100b48261008b565b9050919050565b6100c4816100aa565b81146100ce575f5ffd5b50565b5f815190506100df816100bb565b92915050565b5f819050919050565b6100f7816100e5565b8114610101575f5ffd5b50565b5f81519050610112816100ee565b92915050565b5f5f5f5f608085870312156101305761012f610087565b5b5f61013d878288016100d1565b945050602061014e87828801610104565b935050604061015f87828801610104565b925050606061017087828801610104565b91505092959194509250565b60805160a05160c05160e051611fe56101e05f395f81816107140152610ae701525f8181610549015261114701525f81816106e3015281816108f50152610d1701525f81816106250152818161064a01528181610edd0152610fb60152611fe55ff3fe608060405234801561000f575f5ffd5b506004361061014b575f3560e01c8063a69beaba116100c1578063d8ccd0f31161007a578063d8ccd0f3146103a1578063dd467064146103bd578063ed081329146103d9578063f8b17a1514610409578063fc7e286d14610427578063fe95a5ce146104575761014b565b8063a69beaba146102a7578063a9dbaf25146102c3578063b404edbc146102f3578063b700961314610311578063c2ffc7bb14610341578063d8bff5a5146103715761014b565b80633c278bd5116101135780633c278bd5146101d157806347799da8146101ed5780635123e1fa1461020b5780635d0341ba1461023b5780637189cae81461026b578063957aa58c146102895761014b565b806301339c211461014f57806312d43a5114610159578063180cb47f14610177578063266f69e314610195578063362344b8146101b3575b5f5ffd5b610157610475565b005b610161610623565b60405161016e9190611519565b60405180910390f35b61017f610647565b60405161018c9190611552565b60405180910390f35b61019d61066e565b6040516101aa9190611583565b60405180910390f35b6101bb6106e0565b6040516101c891906115b4565b60405180910390f35b6101eb60048036038101906101e691906115ff565b610707565b005b6101f56108ec565b60405161020291906115b4565b60405180910390f35b6102256004803603810190610220919061168b565b6108f2565b6040516102329190611583565b60405180910390f35b610255600480360381019061025091906115ff565b610ad0565b60405161026291906115b4565b60405180910390f35b610273610ae5565b60405161028091906115b4565b60405180910390f35b610291610b09565b60405161029e91906115b4565b60405180910390f35b6102c160048036038101906102bc9190611700565b610b0e565b005b6102dd60048036038101906102d89190611700565b610cf8565b6040516102ea91906115b4565b60405180910390f35b6102fb610d15565b60405161030891906115b4565b60405180910390f35b61032b60048036038101906103269190611780565b610d39565b60405161033891906117ea565b60405180910390f35b61035b6004803603810190610356919061182d565b610da0565b6040516103689190611552565b60405180910390f35b61038b600480360381019061038691906115ff565b610de8565b6040516103989190611583565b60405180910390f35b6103bb60048036038101906103b6919061186b565b610dfd565b005b6103d760048036038101906103d2919061186b565b610fb4565b005b6103f360048036038101906103ee919061168b565b611129565b6040516104009190611583565b60405180910390f35b610411611145565b60405161041e91906115b4565b60405180910390f35b610441600480360381019061043c91906115ff565b611169565b60405161044e91906115b4565b60405180910390f35b61045f61117e565b60405161046c9190611552565b60405180910390f35b5f5f54146104b8576040517f08c379a00000000000000000000000000000000000000000000000000000000081526004016104af906118f0565b60405180910390fd5b5f73ffffffffffffffffffffffffffffffffffffffff1660015f9054906101000a900473ffffffffffffffffffffffffffffffffffffffff1673ffffffffffffffffffffffffffffffffffffffff1614610547576040517f08c379a000000000000000000000000000000000000000000000000000000000815260040161053e90611958565b60405180910390fd5b7f000000000000000000000000000000000000000000000000000000000000000060045f5f73ffffffffffffffffffffffffffffffffffffffff1673ffffffffffffffffffffffffffffffffffffffff1681526020019081526020015f205410156105e7576040517f08c379a00000000000000000000000000000000000000000000000000000000081526004016105de906119c0565b60405180910390fd5b60015f81905550436006819055507f02ac8168caf2f254b394bd39e19417c5c28124ab89c9bc2d44921b19808e266960405160405180910390a1565b7f000000000000000000000000000000000000000000000000000000000000000081565b5f7f0000000000000000000000000000000000000000000000000000000000000000905090565b5f67ffffffffffffffff811115610688576106876119de565b5b6040519080825280602002602001820160405280156106b65781602001602082028036833780820191505090505b506040516020016106c79190611abc565b6040516020818303038152906040528051906020012081565b5f7f0000000000000000000000000000000000000000000000000000000000000000905090565b60065443148061074357507f00000000000000000000000000000000000000000000000000000000000000006006546107409190611aff565b43115b610782576040517f08c379a000000000000000000000000000000000000000000000000000000000815260040161077990611b7c565b60405180910390fd5b60045f60015f9054906101000a900473ffffffffffffffffffffffffffffffffffffffff1673ffffffffffffffffffffffffffffffffffffffff1673ffffffffffffffffffffffffffffffffffffffff1681526020019081526020015f205460045f8373ffffffffffffffffffffffffffffffffffffffff1673ffffffffffffffffffffffffffffffffffffffff1681526020019081526020015f20541161085f576040517f08c379a000000000000000000000000000000000000000000000000000000000815260040161085690611be4565b60405180910390fd5b8060015f6101000a81548173ffffffffffffffffffffffffffffffffffffffff021916908373ffffffffffffffffffffffffffffffffffffffff160217905550436006819055508073ffffffffffffffffffffffffffffffffffffffff167f2b07094bdf192088dc9d18c2c3a2b11b7f1df5d6f3460343964c059221e3f04860405160405180910390a250565b60065481565b5f7f0000000000000000000000000000000000000000000000000000000000000000838390501115610959576040517f08c379a000000000000000000000000000000000000000000000000000000000815260040161095090611c4c565b60405180910390fd5b6001838390501115610a44575f5f90505b60018484905003811015610a425783836001830181811061098e5761098d611c6a565b5b90506020020160208101906109a391906115ff565b73ffffffffffffffffffffffffffffffffffffffff168484838181106109cc576109cb611c6a565b5b90506020020160208101906109e191906115ff565b73ffffffffffffffffffffffffffffffffffffffff1610610a37576040517f08c379a0000000000000000000000000000000000000000000000000000000008152600401610a2e90611ce1565b60405180910390fd5b80600101905061096a565b505b8282604051602001610a57929190611d85565b604051602081830303815290604052805190602001209050828260025f8481526020019081526020015f209190610a8f9291906113e7565b50807fbde4476d3fa00c45be48daa5d230f4dbcd5d571237f236d9e24793a4468edbc78484604051610ac2929190611e2e565b60405180910390a292915050565b6004602052805f5260405f205f915090505481565b7f000000000000000000000000000000000000000000000000000000000000000081565b5f5481565b5f60025f8381526020019081526020015f20805490501180610b9d57505f67ffffffffffffffff811115610b4557610b446119de565b5b604051908082528060200260200182016040528015610b735781602001602082028036833780820191505090505b50604051602001610b849190611abc565b6040516020818303038152906040528051906020012081145b610bdc576040517f08c379a0000000000000000000000000000000000000000000000000000000008152600401610bd390611e9a565b60405180910390fd5b5f60055f3373ffffffffffffffffffffffffffffffffffffffff1673ffffffffffffffffffffffffffffffffffffffff1681526020019081526020015f20549050610c648160035f3373ffffffffffffffffffffffffffffffffffffffff1673ffffffffffffffffffffffffffffffffffffffff1681526020019081526020015f20546111a3565b8160035f3373ffffffffffffffffffffffffffffffffffffffff1673ffffffffffffffffffffffffffffffffffffffff1681526020019081526020015f2081905550610cb081836112c5565b813373ffffffffffffffffffffffffffffffffffffffff167fc1eff9d9e2ab8a2b29706e0c2818cd78972e60f1ce84c268a77005b0bece97c460405160405180910390a35050565b5f60025f8381526020019081526020015f20805490509050919050565b7f000000000000000000000000000000000000000000000000000000000000000081565b5f60015f54148015610d97575060015f9054906101000a900473ffffffffffffffffffffffffffffffffffffffff1673ffffffffffffffffffffffffffffffffffffffff168473ffffffffffffffffffffffffffffffffffffffff16145b90509392505050565b6002602052815f5260405f208181548110610db9575f80fd5b905f5260205f20015f915091509054906101000a900473ffffffffffffffffffffffffffffffffffffffff1681565b6003602052805f5260405f205f915090505481565b6006544311610e41576040517f08c379a0000000000000000000000000000000000000000000000000000000008152600401610e3890611f02565b60405180910390fd5b8060055f3373ffffffffffffffffffffffffffffffffffffffff1673ffffffffffffffffffffffffffffffffffffffff1681526020019081526020015f205f828254610e8d9190611f20565b92505081905550610edb8160035f3373ffffffffffffffffffffffffffffffffffffffff1673ffffffffffffffffffffffffffffffffffffffff1681526020019081526020015f20546111a3565b7f000000000000000000000000000000000000000000000000000000000000000073ffffffffffffffffffffffffffffffffffffffff1663a9059cbb33836040518363ffffffff1660e01b8152600401610f36929190611f53565b5f604051808303815f87803b158015610f4d575f5ffd5b505af1158015610f5f573d5f5f3e3d5ffd5b505050503373ffffffffffffffffffffffffffffffffffffffff167fce6c5af8fd109993cb40da4d5dc9e4dd8e61bc2e48f1e3901472141e4f56f29382604051610fa991906115b4565b60405180910390a250565b7f000000000000000000000000000000000000000000000000000000000000000073ffffffffffffffffffffffffffffffffffffffff166323b872dd3330846040518463ffffffff1660e01b815260040161101193929190611f7a565b5f604051808303815f87803b158015611028575f5ffd5b505af115801561103a573d5f5f3e3d5ffd5b505050508060055f3373ffffffffffffffffffffffffffffffffffffffff1673ffffffffffffffffffffffffffffffffffffffff1681526020019081526020015f205f82825461108a9190611aff565b925050819055506110d88160035f3373ffffffffffffffffffffffffffffffffffffffff1673ffffffffffffffffffffffffffffffffffffffff1681526020019081526020015f20546112c5565b3373ffffffffffffffffffffffffffffffffffffffff167f625fed9875dada8643f2418b838ae0bc78d9a148a18eee4ee1979ff0f3f5d4278260405161111e91906115b4565b60405180910390a250565b5f61113483836108f2565b905061113f81610b0e565b92915050565b7f000000000000000000000000000000000000000000000000000000000000000081565b6005602052805f5260405f205f915090505481565b60015f9054906101000a900473ffffffffffffffffffffffffffffffffffffffff1681565b5f60025f8381526020019081526020015f2080548060200260200160405190810160405280929190818152602001828054801561123257602002820191905f5260205f20905b815f9054906101000a900473ffffffffffffffffffffffffffffffffffffffff1673ffffffffffffffffffffffffffffffffffffffff16815260200190600101908083116111e9575b505050505090505f5f90505b81518110156112bf578360045f84848151811061125e5761125d611c6a565b5b602002602001015173ffffffffffffffffffffffffffffffffffffffff1673ffffffffffffffffffffffffffffffffffffffff1681526020019081526020015f205f8282546112ad9190611f20565b9250508190555080600101905061123e565b50505050565b5f60025f8381526020019081526020015f2080548060200260200160405190810160405280929190818152602001828054801561135457602002820191905f5260205f20905b815f9054906101000a900473ffffffffffffffffffffffffffffffffffffffff1673ffffffffffffffffffffffffffffffffffffffff168152602001906001019080831161130b575b505050505090505f5f90505b81518110156113e1578360045f8484815181106113805761137f611c6a565b5b602002602001015173ffffffffffffffffffffffffffffffffffffffff1673ffffffffffffffffffffffffffffffffffffffff1681526020019081526020015f205f8282546113cf9190611aff565b92505081905550806001019050611360565b50505050565b828054828255905f5260205f20908101928215611473579160200282015b8281111561147257823573ffffffffffffffffffffffffffffffffffffffff16825f6101000a81548173ffffffffffffffffffffffffffffffffffffffff021916908373ffffffffffffffffffffffffffffffffffffffff16021790555091602001919060010190611405565b5b5090506114809190611484565b5090565b5b8082111561149b575f815f905550600101611485565b5090565b5f73ffffffffffffffffffffffffffffffffffffffff82169050919050565b5f819050919050565b5f6114e16114dc6114d78461149f565b6114be565b61149f565b9050919050565b5f6114f2826114c7565b9050919050565b5f611503826114e8565b9050919050565b611513816114f9565b82525050565b5f60208201905061152c5f83018461150a565b92915050565b5f61153c8261149f565b9050919050565b61154c81611532565b82525050565b5f6020820190506115655f830184611543565b92915050565b5f819050919050565b61157d8161156b565b82525050565b5f6020820190506115965f830184611574565b92915050565b5f819050919050565b6115ae8161159c565b82525050565b5f6020820190506115c75f8301846115a5565b92915050565b5f5ffd5b5f5ffd5b6115de81611532565b81146115e8575f5ffd5b50565b5f813590506115f9816115d5565b92915050565b5f60208284031215611614576116136115cd565b5b5f611621848285016115eb565b91505092915050565b5f5ffd5b5f5ffd5b5f5ffd5b5f5f83601f84011261164b5761164a61162a565b5b8235905067ffffffffffffffff8111156116685761166761162e565b5b60208301915083602082028301111561168457611683611632565b5b9250929050565b5f5f602083850312156116a1576116a06115cd565b5b5f83013567ffffffffffffffff8111156116be576116bd6115d1565b5b6116ca85828601611636565b92509250509250929050565b6116df8161156b565b81146116e9575f5ffd5b50565b5f813590506116fa816116d6565b92915050565b5f60208284031215611715576117146115cd565b5b5f611722848285016116ec565b91505092915050565b5f7fffffffff0000000000000000000000000000000000000000000000000000000082169050919050565b61175f8161172b565b8114611769575f5ffd5b50565b5f8135905061177a81611756565b92915050565b5f5f5f60608486031215611797576117966115cd565b5b5f6117a4868287016115eb565b93505060206117b5868287016115eb565b92505060406117c68682870161176c565b9150509250925092565b5f8115159050919050565b6117e4816117d0565b82525050565b5f6020820190506117fd5f8301846117db565b92915050565b61180c8161159c565b8114611816575f5ffd5b50565b5f8135905061182781611803565b92915050565b5f5f60408385031215611843576118426115cd565b5b5f611850858286016116ec565b925050602061186185828601611819565b9150509250929050565b5f602082840312156118805761187f6115cd565b5b5f61188d84828501611819565b91505092915050565b5f82825260208201905092915050565b7f43686965662f616c72656164792d6c69766500000000000000000000000000005f82015250565b5f6118da601283611896565b91506118e5826118a6565b602082019050919050565b5f6020820190508181035f830152611907816118ce565b9050919050565b7f43686965662f6e6f742d616464726573732d7a65726f000000000000000000005f82015250565b5f611942601683611896565b915061194d8261190e565b602082019050919050565b5f6020820190508181035f83015261196f81611936565b9050919050565b7f43686965662f6c6573732d7468616e2d7468726573686f6c64000000000000005f82015250565b5f6119aa601983611896565b91506119b582611976565b602082019050919050565b5f6020820190508181035f8301526119d78161199e565b9050919050565b7f4e487b71000000000000000000000000000000000000000000000000000000005f52604160045260245ffd5b5f81519050919050565b5f81905092915050565b5f819050602082019050919050565b611a3781611532565b82525050565b5f611a488383611a2e565b60208301905092915050565b5f602082019050919050565b5f611a6a82611a0b565b611a748185611a15565b9350611a7f83611a1f565b805f5b83811015611aaf578151611a968882611a3d565b9750611aa183611a54565b925050600181019050611a82565b5085935050505092915050565b5f611ac78284611a60565b915081905092915050565b7f4e487b71000000000000000000000000000000000000000000000000000000005f52601160045260245ffd5b5f611b098261159c565b9150611b148361159c565b9250828201905080821115611b2c57611b2b611ad2565b5b92915050565b7f43686965662f63616e742d6c6966742d616761696e2d796574000000000000005f82015250565b5f611b66601983611896565b9150611b7182611b32565b602082019050919050565b5f6020820190508181035f830152611b9381611b5a565b9050919050565b7f43686965662f6e6f742d6869676865722d63757272656e742d686174000000005f82015250565b5f611bce601c83611896565b9150611bd982611b9a565b602082019050919050565b5f6020820190508181035f830152611bfb81611bc2565b9050919050565b7f43686965662f677265617465722d6d61782d79617973000000000000000000005f82015250565b5f611c36601683611896565b9150611c4182611c02565b602082019050919050565b5f6020820190508181035f830152611c6381611c2a565b9050919050565b7f4e487b71000000000000000000000000000000000000000000000000000000005f52603260045260245ffd5b7f43686965662f796179732d6e6f742d6f726465726564000000000000000000005f82015250565b5f611ccb601683611896565b9150611cd682611c97565b602082019050919050565b5f6020820190508181035f830152611cf881611cbf565b9050919050565b5f819050919050565b5f611d1660208401846115eb565b905092915050565b5f602082019050919050565b5f611d358385611a15565b9350611d4082611cff565b805f5b85811015611d7857611d558284611d08565b611d5f8882611a3d565b9750611d6a83611d1e565b925050600181019050611d43565b5085925050509392505050565b5f611d91828486611d2a565b91508190509392505050565b5f82825260208201905092915050565b611db681611532565b82525050565b5f611dc78383611dad565b60208301905092915050565b5f611dde8385611d9d565b9350611de982611cff565b805f5b85811015611e2157611dfe8284611d08565b611e088882611dbc565b9750611e1383611d1e565b925050600181019050611dec565b5085925050509392505050565b5f6020820190508181035f830152611e47818486611dd3565b90509392505050565b7f43686965662f696e76616c69642d736c617465000000000000000000000000005f82015250565b5f611e84601383611896565b9150611e8f82611e50565b602082019050919050565b5f6020820190508181035f830152611eb181611e78565b9050919050565b7f43686965662f63616e742d667265652d73616d652d626c6f636b0000000000005f82015250565b5f611eec601a83611896565b9150611ef782611eb8565b602082019050919050565b5f6020820190508181035f830152611f1981611ee0565b9050919050565b5f611f2a8261159c565b9150611f358361159c565b9250828203905081811115611f4d57611f4c611ad2565b5b92915050565b5f604082019050611f665f830185611543565b611f7360208301846115a5565b9392505050565b5f606082019050611f8d5f830186611543565b611f9a6020830185611543565b611fa760408301846115a5565b94935050505056fea2646970667358221220a81ddd04db7c05faa9b7b8b5621e4db246a897416aca4fee2051636da7d22c7664736f6c634300081e0033","linkReferences":{}},"methodIdentifiers":{"EMPTY_SLATE()":"266f69e3","GOV()":"180cb47f","MAX_YAYS()":"362344b8","approvals(address)":"5d0341ba","canCall(address,address,bytes4)":"b7009613","deposits(address)":"fc7e286d","etch(address[])":"5123e1fa","free(uint256)":"d8ccd0f3","gov()":"12d43a51","hat()":"fe95a5ce","last()":"47799da8","launch()":"01339c21","launchThreshold()":"f8b17a15","length(bytes32)":"a9dbaf25","lift(address)":"3c278bd5","liftCooldown()":"7189cae8","live()":"957aa58c","lock(uint256)":"dd467064","maxYays()":"b404edbc","slates(bytes32,uint256)":"c2ffc7bb","vote(address[])":"ed081329","vote(bytes32)":"a69beaba","votes(address)":"d8bff5a5"},"id":19}